{
  "address": "0x4ff15c53edA95F407F09C647AF8028BBDaf9E1CB",
  "abi": [
    {
      "inputs": [
        {
          "internalType": "address",
          "name": "_dao",
          "type": "address"
        }
      ],
      "stateMutability": "nonpayable",
      "type": "constructor"
    },
    {
      "anonymous": false,
      "inputs": [
        {
          "indexed": false,
          "internalType": "uint256[]",
          "name": "tierCeilings",
          "type": "uint256[]"
        },
        {
          "indexed": false,
          "internalType": "uint256[]",
          "name": "fees",
          "type": "uint256[]"
        }
      ],
      "name": "FeesAndTierCeilings",
      "type": "event"
    },
    {
      "inputs": [],
      "name": "DAO",
      "outputs": [
        {
          "internalType": "address",
          "name": "",
          "type": "address"
        }
      ],
      "stateMutability": "view",
      "type": "function"
    },
    {
      "inputs": [],
      "name": "getFees",
      "outputs": [
        {
          "internalType": "uint256[]",
          "name": "",
          "type": "uint256[]"
        }
      ],
      "stateMutability": "view",
      "type": "function"
    },
    {
      "inputs": [],
      "name": "getTierCeilings",
      "outputs": [
        {
          "internalType": "uint256[]",
          "name": "",
          "type": "uint256[]"
        }
      ],
      "stateMutability": "view",
      "type": "function"
    },
    {
      "inputs": [
        {
          "internalType": "uint256[]",
          "name": "_tierCeilings",
          "type": "uint256[]"
        },
        {
          "internalType": "uint256[]",
          "name": "_fees",
          "type": "uint256[]"
        }
      ],
      "name": "setTiersAndFees",
      "outputs": [],
      "stateMutability": "nonpayable",
      "type": "function"
    }
  ],
  "transactionHash": "0x4bd02ca1e604fcfc304c68f1e63b3efd6a894d434e0d7f515e540fdaf04d8d6d",
  "args": [
    "0xb10bcC8B508174c761CFB1E7143bFE37c4fBC3a1"
  ],
  "solcInputHash": "7abecc991158ab403c5243682d97805e",
  "bytecode": "0x608060405234801561001057600080fd5b506040516106cd3803806106cd83398101604081905261002f91610083565b6001600160a01b03811661005e5760405162461bcd60e51b8152600401610055906100b1565b60405180910390fd5b600080546001600160a01b0319166001600160a01b03929092169190911790556100e8565b600060208284031215610094578081fd5b81516001600160a01b03811681146100aa578182fd5b9392505050565b60208082526015908201527f466565733a2044414f2062616420616464726573730000000000000000000000604082015260600190565b6105d6806100f76000396000f3fe608060405234801561001057600080fd5b506004361061004c5760003560e01c806398fabd3a14610051578063db8d55f11461006f578063e9b9fb6214610084578063f8f43c8b14610099575b600080fd5b6100596100a1565b604051610066919061043e565b60405180910390f35b6100776100bd565b6040516100669190610491565b610097610092366004610388565b610115565b005b610077610288565b60005473ffffffffffffffffffffffffffffffffffffffff1681565b6060600280548060200260200160405190810160405280929190818152602001828054801561010b57602002820191906000526020600020905b8154815260200190600101908083116100f7575b5050505050905090565b60005473ffffffffffffffffffffffffffffffffffffffff1633146101555760405162461bcd60e51b815260040161014c90610569565b60405180910390fd5b8281146101745760405162461bcd60e51b815260040161014c906104d5565b6000805b828110156101af576101a584848381811061018f57fe5b90506020020135836102de90919063ffffffff16565b9150600101610178565b50600081116101d05760405162461bcd60e51b815260040161014c90610532565b60005b828110156102435760018686838181106101e957fe5b83546001810185556000948552602094859020919094029290920135919092015550600284848381811061021957fe5b835460018082018655600095865260209586902092909502939093013592019190915550016101d3565b507f7170399ecd66b5be3ad09fa69bb2f47cce8c6d7e055d71fdf154450f7b54982185858585604051610279949392919061045f565b60405180910390a15050505050565b6060600180548060200260200160405190810160405280929190818152602001828054801561010b57602002820191906000526020600020908154815260200190600101908083116100f7575050505050905090565b600082820183811015610338576040805162461bcd60e51b815260206004820152601b60248201527f536166654d6174683a206164646974696f6e206f766572666c6f770000000000604482015290519081900360640190fd5b9392505050565b60008083601f840112610350578182fd5b50813567ffffffffffffffff811115610367578182fd5b602083019150836020808302850101111561038157600080fd5b9250929050565b6000806000806040858703121561039d578384fd5b843567ffffffffffffffff808211156103b4578586fd5b6103c08883890161033f565b909650945060208701359150808211156103d8578384fd5b506103e58782880161033f565b95989497509550505050565b60008284527f07ffffffffffffffffffffffffffffffffffffffffffffffffffffffffffffff831115610422578081fd5b6020830280836020870137939093016020019283525090919050565b73ffffffffffffffffffffffffffffffffffffffff91909116815260200190565b6000604082526104736040830186886103f1565b82810360208401526104868185876103f1565b979650505050505050565b6020808252825182820181905260009190848201906040850190845b818110156104c9578351835292840192918401916001016104ad565b50909695505050505050565b60208082526021908201527f7365745469657273416e64466565733a20426164206974656d73206c656e677460408201527f6800000000000000000000000000000000000000000000000000000000000000606082015260800190565b60208082526019908201527f7365745469657273416e64466565733a20426164206665657300000000000000604082015260600190565b6020808252600d908201527f4f6e6c792044414f2063616c6c0000000000000000000000000000000000000060408201526060019056fea2646970667358221220ea80926e317eb2be983e6a460984f4244f6704d72120c9748d3046cff096d6d464736f6c63430007050033",
  "devdoc": {
    "kind": "dev",
    "methods": {
      "setTiersAndFees(uint256[],uint256[])": {
        "params": {
          "_fees": "uint[]",
          "_tierCeilings": "uint[]"
        }
      }
    },
    "version": 1
  },
  "userdoc": {
    "kind": "user",
    "methods": {
      "getFees()": {
        "notice": "Get fees for bond"
      },
      "getTierCeilings()": {
        "notice": "Get tierCeilings for bond"
      },
      "setTiersAndFees(uint256[],uint256[])": {
        "notice": "set fee for creating bond"
      }
    },
    "version": 1
  },
  "storageLayout": {
    "storage": [
      {
        "astId": 2337,
        "contract": "src/bonding/Fees.sol:Fees",
        "label": "DAO",
        "offset": 0,
        "slot": "0",
        "type": "t_address"
      },
      {
        "astId": 2340,
        "contract": "src/bonding/Fees.sol:Fees",
        "label": "tierCeilings",
        "offset": 0,
        "slot": "1",
        "type": "t_array(t_uint256)dyn_storage"
      },
      {
        "astId": 2343,
        "contract": "src/bonding/Fees.sol:Fees",
        "label": "fees",
        "offset": 0,
        "slot": "2",
        "type": "t_array(t_uint256)dyn_storage"
      }
    ],
    "types": {
      "t_address": {
        "encoding": "inplace",
        "label": "address",
        "numberOfBytes": "20"
      },
      "t_array(t_uint256)dyn_storage": {
        "base": "t_uint256",
        "encoding": "dynamic_array",
        "label": "uint256[]",
        "numberOfBytes": "32"
      },
      "t_uint256": {
        "encoding": "inplace",
        "label": "uint256",
        "numberOfBytes": "32"
      }
    }
  }
}