{
  "address": "0x6eeAEff2A5393F09B9D11b7d6489A3282a9AD28d",
  "abi": [
    {
      "inputs": [
        {
          "internalType": "address",
          "name": "_uniswap2Factory",
          "type": "address"
        },
        {
          "internalType": "address",
          "name": "_uniswap2Router",
          "type": "address"
        },
        {
          "internalType": "address",
          "name": "_sushiswapFactory",
          "type": "address"
        },
        {
          "internalType": "address",
          "name": "_sushiswapRouter",
          "type": "address"
        }
      ],
      "stateMutability": "nonpayable",
      "type": "constructor"
    },
    {
      "inputs": [
        {
          "internalType": "uint256",
          "name": "_payoutAmount",
          "type": "uint256"
        },
        {
          "internalType": "uint256",
          "name": "_expectedAmount",
          "type": "uint256"
        },
        {
          "internalType": "address",
          "name": "_router",
          "type": "address"
        },
        {
          "internalType": "address[]",
          "name": "_path",
          "type": "address[]"
        }
      ],
      "name": "__swapETHToToken",
      "outputs": [
        {
          "internalType": "uint256[]",
          "name": "amounts_",
          "type": "uint256[]"
        }
      ],
      "stateMutability": "payable",
      "type": "function"
    },
    {
      "inputs": [],
      "name": "getSushiFactory",
      "outputs": [
        {
          "internalType": "address",
          "name": "factory_",
          "type": "address"
        }
      ],
      "stateMutability": "view",
      "type": "function"
    },
    {
      "inputs": [],
      "name": "getSushiRouter",
      "outputs": [
        {
          "internalType": "address",
          "name": "router_",
          "type": "address"
        }
      ],
      "stateMutability": "view",
      "type": "function"
    },
    {
      "inputs": [],
      "name": "getUniswapFactory",
      "outputs": [
        {
          "internalType": "address",
          "name": "factory_",
          "type": "address"
        }
      ],
      "stateMutability": "view",
      "type": "function"
    },
    {
      "inputs": [],
      "name": "getUniswapRouter",
      "outputs": [
        {
          "internalType": "address",
          "name": "router_",
          "type": "address"
        }
      ],
      "stateMutability": "view",
      "type": "function"
    },
    {
      "inputs": [
        {
          "internalType": "bytes",
          "name": "_swapArgs",
          "type": "bytes"
        }
      ],
      "name": "swapForDeposit",
      "outputs": [
        {
          "internalType": "address",
          "name": "lpAddress_",
          "type": "address"
        },
        {
          "internalType": "uint256",
          "name": "lpAmount_",
          "type": "uint256"
        }
      ],
      "stateMutability": "nonpayable",
      "type": "function"
    },
    {
      "stateMutability": "payable",
      "type": "receive"
    }
  ],
  "transactionHash": "0xaa42a866349f8afd86a270d5e3859676eef358849ab5a6a4af770c2f27f5b8bc",
  "args": [
    "0x5C69bEe701ef814a2B6a3EDD4B1652CB9cc5aA6f",
    "0x7a250d5630B4cF539739dF2C5dAcb4c659F2488D",
    "0xc35DADB65012eC5796536bD9864eD8773aBc74C4",
    "0x1b02dA8Cb0d097eB8D57A175b88c7D8b47997506"
  ],
  "solcInputHash": "7abecc991158ab403c5243682d97805e",
  "bytecode": "0x6101206040523480156200001257600080fd5b506040516200203538038062002035833981810160405260808110156200003857600080fd5b50805160208201516040830151606090930151919290916001600160a01b038416620000965760405162461bcd60e51b815260040180806020018281038252603181526020018062001fa26031913960400191505060405180910390fd5b6001600160a01b038316620000dd5760405162461bcd60e51b815260040180806020018281038252603081526020018062001fd36030913960400191505060405180910390fd5b6001600160a01b038216620001245760405162461bcd60e51b8152600401808060200182810382526032815260200180620020036032913960400191505060405180910390fd5b6001600160a01b0381166200016b5760405162461bcd60e51b815260040180806020018281038252603181526020018062001f716031913960400191505060405180910390fd5b6001600160601b0319606085811b821660805284811b821660a05283811b821660c05282901b1660e052604080516315ab88c960e31b815290516001600160a01b0385169163ad5c4648916004808301926020929190829003018186803b158015620001d657600080fd5b505afa158015620001eb573d6000803e3d6000fd5b505050506040513d60208110156200020257600080fd5b50516001600160601b031960609190911b16610100525050505060805160601c60a05160601c60c05160601c60e05160601c6101005160601c611cd962000298600039806108605280610ac652508061030252806112b152508061029652806111c252806112d25250806102de528061132252806113945250806102ba52806110e0528061134352806113b55250611cd96000f3fe6080604052600436106100695760003560e01c806372667cdb1161004357806372667cdb146100d0578063af82ddce146100e5578063c20fd7a2146101f457610070565b80631b66bce2146100755780633e6dfa36146100a6578063524900b5146100bb57610070565b3661007057005b600080fd5b34801561008157600080fd5b5061008a610294565b604080516001600160a01b039092168252519081900360200190f35b3480156100b257600080fd5b5061008a6102b8565b3480156100c757600080fd5b5061008a6102dc565b3480156100dc57600080fd5b5061008a610300565b6101a4600480360360808110156100fb57600080fd5b8135916020810135916001600160a01b03604083013516919081019060808101606082013564010000000081111561013257600080fd5b82018360208201111561014457600080fd5b8035906020019184602083028401116401000000008311171561016657600080fd5b919080806020026020016040519081016040528093929190818152602001838360200280828437600092019190915250929550610324945050505050565b60408051602080825283518183015283519192839290830191858101910280838360005b838110156101e05781810151838201526020016101c8565b505050509050019250505060405180910390f35b34801561020057600080fd5b506102716004803603602081101561021757600080fd5b81019060208101813564010000000081111561023257600080fd5b82018360208201111561024457600080fd5b8035906020019184600183028401116401000000008311171561026657600080fd5b5090925090506104c8565b604080516001600160a01b03909316835260208301919091528051918290030190f35b7f000000000000000000000000000000000000000000000000000000000000000090565b7f000000000000000000000000000000000000000000000000000000000000000090565b7f000000000000000000000000000000000000000000000000000000000000000090565b7f000000000000000000000000000000000000000000000000000000000000000090565b60606103458260008151811061033657fe5b6020026020010151848761056c565b6001600160a01b038316637ff36ab547868530610363426001610640565b6040518663ffffffff1660e01b81526004018085815260200180602001846001600160a01b03168152602001838152602001828103825285818151815260200191508051906020019060200280838360005b838110156103cd5781810151838201526020016103b5565b50505050905001955050505050506000604051808303818588803b1580156103f457600080fd5b505af1158015610408573d6000803e3d6000fd5b50505050506040513d6000823e601f3d908101601f19168201604052602081101561043257600080fd5b810190808051604051939291908464010000000082111561045257600080fd5b90830190602082018581111561046757600080fd5b825186602082028301116401000000008211171561048457600080fd5b82525081516020918201928201910280838360005b838110156104b1578181015183820152602001610499565b505050509050016040525050509050949350505050565b60008083838080601f016020809104026020016040519081016040528093929190818152602001838380828437600092018290525092508291508190508061050f856106a1565b929650909450925090506001600160a01b0383161561053d5761053d6001600160a01b0384163330876106de565b610547898961076c565b90975095506105563384610dad565b6105603383610dad565b50505050509250929050565b604080517fdd62ed3e0000000000000000000000000000000000000000000000000000000081523060048201526001600160a01b0384811660248301529151839286169163dd62ed3e916044808301926020929190829003018186803b1580156105d557600080fd5b505afa1580156105e9573d6000803e3d6000fd5b505050506040513d60208110156105ff57600080fd5b5051101561063b5761063b6001600160a01b038416837fffffffffffffffffffffffffffffffffffffffffffffffffffffffffffffffff610ed2565b505050565b60008282018381101561069a576040805162461bcd60e51b815260206004820152601b60248201527f536166654d6174683a206164646974696f6e206f766572666c6f770000000000604482015290519081900360640190fd5b9392505050565b6000806000808480602001905160808110156106bc57600080fd5b5080516020820151604083015160609093015191989097509195509350915050565b604080516001600160a01b0380861660248301528416604482015260648082018490528251808303909101815260849091019091526020810180517bffffffffffffffffffffffffffffffffffffffffffffffffffffffff167f23b872dd00000000000000000000000000000000000000000000000000000000179052610766908590611028565b50505050565b6000806000806000806107b488888080601f0160208091040260200160405190810160405280939291908181526020018383808284376000920191909152506106a192505050565b60408051600280825260608083018452969a50949850929650909450600093849389939192602083019080368337019050509050856001600160a01b0316876001600160a01b031614610b3257868160008151811061080f57fe5b60200260200101906001600160a01b031690816001600160a01b03168152505060006001600160a01b03168160008151811061084757fe5b60200260200101516001600160a01b031614156108ad577f00000000000000000000000000000000000000000000000000000000000000008160008151811061088c57fe5b60200260200101906001600160a01b031690816001600160a01b0316815250505b85816001815181106108bb57fe5b60200260200101906001600160a01b031690816001600160a01b0316815250506108e4816110d9565b5093506001600160a01b038416610942576040805162461bcd60e51b815260206004820152600d60248201527f537761703a204e6f20506f6f6c00000000000000000000000000000000000000604482015290519081900360640190fd5b604080517fd06ca61f000000000000000000000000000000000000000000000000000000008152600481018a8152602482019283528351604483015283516001600160a01b0388169363d06ca61f938d938793909291606401906020808601910280838360005b838110156109c15781810151838201526020016109a9565b50505050905001935050505060006040518083038186803b1580156109e557600080fd5b505afa1580156109f9573d6000803e3d6000fd5b505050506040513d6000823e601f3d908101601f191682016040526020811015610a2257600080fd5b8101908080516040519392919084640100000000821115610a4257600080fd5b908301906020820185811115610a5757600080fd5b8251866020820283011164010000000082111715610a7457600080fd5b82525081516020918201928201910280838360005b83811015610aa1578181015183820152602001610a89565b50505050905001604052505050600181518110610aba57fe5b602002602001015191507f00000000000000000000000000000000000000000000000000000000000000006001600160a01b031681600081518110610afb57fe5b60200260200101516001600160a01b03161415610b2457610b1e88838684610324565b50610b32565b610b3088838684611418565b505b8581600081518110610b4057fe5b60200260200101906001600160a01b031690816001600160a01b0316815250508481600181518110610b6e57fe5b60200260200101906001600160a01b031690816001600160a01b031681525050610b97816110d9565b90945092506001600160a01b038416610bf7576040805162461bcd60e51b815260206004820152600d60248201527f537761703a204e6f20506f6f6c00000000000000000000000000000000000000604482015290519081900360640190fd5b60006001600160a01b03851663d06ca61f610c1385600261151e565b846040518363ffffffff1660e01b81526004018083815260200180602001828103825283818151815260200191508051906020019060200280838360005b83811015610c69578181015183820152602001610c51565b50505050905001935050505060006040518083038186803b158015610c8d57600080fd5b505afa158015610ca1573d6000803e3d6000fd5b505050506040513d6000823e601f3d908101601f191682016040526020811015610cca57600080fd5b8101908080516040519392919084640100000000821115610cea57600080fd5b908301906020820185811115610cff57600080fd5b8251866020820283011164010000000082111715610d1c57600080fd5b82525081516020918201928201910280838360005b83811015610d49578181015183820152602001610d31565b50505050905001604052505050600181518110610d6257fe5b60200260200101519050610d8b610d8360028561151e90919063ffffffff16565b828785611418565b50610d998486848685611560565b909e909d509b505050505050505050505050565b60006001600160a01b03821673eeeeeeeeeeeeeeeeeeeeeeeeeeeeeeeeeeeeeeee1480610de157506001600160a01b038216155b15610e2b5750478015610e26576040516001600160a01b0384169082156108fc029083906000818181858888f19350505050158015610e24573d6000803e3d6000fd5b505b61063b565b604080517f70a0823100000000000000000000000000000000000000000000000000000000815230600482015290516001600160a01b038416916370a08231916024808301926020929190829003018186803b158015610e8a57600080fd5b505afa158015610e9e573d6000803e3d6000fd5b505050506040513d6020811015610eb457600080fd5b50519050801561063b5761063b6001600160a01b0383168483611639565b801580610f715750604080517fdd62ed3e0000000000000000000000000000000000000000000000000000000081523060048201526001600160a01b03848116602483015291519185169163dd62ed3e91604480820192602092909190829003018186803b158015610f4357600080fd5b505afa158015610f57573d6000803e3d6000fd5b505050506040513d6020811015610f6d57600080fd5b5051155b610fac5760405162461bcd60e51b8152600401808060200182810382526036815260200180611c6e6036913960400191505060405180910390fd5b604080516001600160a01b038416602482015260448082018490528251808303909101815260649091019091526020810180517bffffffffffffffffffffffffffffffffffffffffffffffffffffffff167f095ea7b30000000000000000000000000000000000000000000000000000000017905261063b9084905b606061107d826040518060400160405280602081526020017f5361666545524332303a206c6f772d6c6576656c2063616c6c206661696c6564815250856001600160a01b03166116b99092919063ffffffff16565b80519091501561063b5780806020019051602081101561109c57600080fd5b505161063b5760405162461bcd60e51b815260040180806020018281038252602a815260200180611c44602a913960400191505060405180910390fd5b60008060007f00000000000000000000000000000000000000000000000000000000000000006001600160a01b031663e6a439058560008151811061111a57fe5b60200260200101518660018151811061112f57fe5b60200260200101516040518363ffffffff1660e01b815260040180836001600160a01b03168152602001826001600160a01b031681526020019250505060206040518083038186803b15801561118457600080fd5b505afa158015611198573d6000803e3d6000fd5b505050506040513d60208110156111ae57600080fd5b505184519091506000906001600160a01b037f0000000000000000000000000000000000000000000000000000000000000000169063e6a4390590879084906111f357fe5b60200260200101518760018151811061120857fe5b60200260200101516040518363ffffffff1660e01b815260040180836001600160a01b03168152602001826001600160a01b031681526020019250505060206040518083038186803b15801561125d57600080fd5b505afa158015611271573d6000803e3d6000fd5b505050506040513d602081101561128757600080fd5b505190506001600160a01b0382161580156112aa57506001600160a01b03811615155b156112fc577f00000000000000000000000000000000000000000000000000000000000000007f0000000000000000000000000000000000000000000000000000000000000000935093505050611413565b6001600160a01b0382161580159061131b57506001600160a01b038116155b1561136d577f00000000000000000000000000000000000000000000000000000000000000007f0000000000000000000000000000000000000000000000000000000000000000935093505050611413565b6001600160a01b0382161580159061138d57506001600160a01b03811615155b156113df577f00000000000000000000000000000000000000000000000000000000000000007f0000000000000000000000000000000000000000000000000000000000000000935093505050611413565b6001600160a01b0382161580156113fd57506001600160a01b038116155b1561141057600080935093505050611413565b50505b915091565b606061142a8260008151811061033657fe5b6001600160a01b0383166338ed173986868530611448426001610640565b6040518663ffffffff1660e01b81526004018086815260200185815260200180602001846001600160a01b03168152602001838152602001828103825285818151815260200191508051906020019060200280838360005b838110156114b85781810151838201526020016114a0565b505050509050019650505050505050600060405180830381600087803b1580156114e157600080fd5b505af11580156114f5573d6000803e3d6000fd5b505050506040513d6000823e601f3d908101601f19168201604052602081101561043257600080fd5b600061069a83836040518060400160405280601a81526020017f536166654d6174683a206469766973696f6e206279207a65726f0000000000008152506116d0565b60008061156f86868686611772565b9050866001600160a01b031663e6a439058660008151811061158d57fe5b6020026020010151876001815181106115a257fe5b60200260200101516040518363ffffffff1660e01b815260040180836001600160a01b03168152602001826001600160a01b031681526020019250505060206040518083038186803b1580156115f757600080fd5b505afa15801561160b573d6000803e3d6000fd5b505050506040513d602081101561162157600080fd5b5051915061162f3383610dad565b9550959350505050565b604080516001600160a01b038416602482015260448082018490528251808303909101815260649091019091526020810180517bffffffffffffffffffffffffffffffffffffffffffffffffffffffff167fa9059cbb0000000000000000000000000000000000000000000000000000000017905261063b908490611028565b60606116c88484600085611ad0565b949350505050565b6000818361175c5760405162461bcd60e51b81526004018080602001828103825283818151815260200191508051906020019080838360005b83811015611721578181015183820152602001611709565b50505050905090810190601f16801561174e5780820380516001836020036101000a031916815260200191505b509250505060405180910390fd5b50600083858161176857fe5b0495945050505050565b60006117938460008151811061178457fe5b6020026020010151868561056c565b6117b2846001815181106117a357fe5b6020026020010151868461056c565b6040805160028082526060808301845292602083019080368337019050509050846001815181106117df57fe5b6020026020010151816000815181106117f457fe5b60200260200101906001600160a01b031690816001600160a01b0316815250508460008151811061182157fe5b60200260200101518160018151811061183657fe5b60200260200101906001600160a01b031690816001600160a01b0316815250506000866001600160a01b031663d06ca61f85846040518363ffffffff1660e01b81526004018083815260200180602001828103825283818151815260200191508051906020019060200280838360005b838110156118be5781810151838201526020016118a6565b50505050905001935050505060006040518083038186803b1580156118e257600080fd5b505afa1580156118f6573d6000803e3d6000fd5b505050506040513d6000823e601f3d908101601f19168201604052602081101561191f57600080fd5b810190808051604051939291908464010000000082111561193f57600080fd5b90830190602082018581111561195457600080fd5b825186602082028301116401000000008211171561197157600080fd5b82525081516020918201928201910280838360005b8381101561199e578181015183820152602001611986565b505050509050016040525050506001815181106119b757fe5b60200260200101519050866001600160a01b031663e8e33700876000815181106119dd57fe5b6020026020010151886001815181106119f257fe5b6020026020010151848860018033611a1460014261064090919063ffffffff16565b6040518963ffffffff1660e01b815260040180896001600160a01b03168152602001886001600160a01b03168152602001878152602001868152602001858152602001848152602001836001600160a01b0316815260200182815260200198505050505050505050606060405180830381600087803b158015611a9657600080fd5b505af1158015611aaa573d6000803e3d6000fd5b505050506040513d6060811015611ac057600080fd5b5060400151979650505050505050565b6060611adb85611c3d565b611b2c576040805162461bcd60e51b815260206004820152601d60248201527f416464726573733a2063616c6c20746f206e6f6e2d636f6e7472616374000000604482015290519081900360640190fd5b60006060866001600160a01b031685876040518082805190602001908083835b60208310611b6b5780518252601f199092019160209182019101611b4c565b6001836020036101000a03801982511681845116808217855250505050505090500191505060006040518083038185875af1925050503d8060008114611bcd576040519150601f19603f3d011682016040523d82523d6000602084013e611bd2565b606091505b50915091508115611be65791506116c89050565b805115611bf65780518082602001fd5b60405162461bcd60e51b8152602060048201818152865160248401528651879391928392604401919085019080838360008315611721578181015183820152602001611709565b3b15159056fe5361666545524332303a204552433230206f7065726174696f6e20646964206e6f7420737563636565645361666545524332303a20617070726f76652066726f6d206e6f6e2d7a65726f20746f206e6f6e2d7a65726f20616c6c6f77616e6365a26469706673582212208f61f05095eb11ba006f2edd381ffbd7f36970430425d9d8fe7597e52930084664736f6c6343000705003348656c7065723a205f737573686973776170526f75746572206d757374206e6f74206265207a65726f206164647265737348656c7065723a205f756e697377617032466163746f7279206d757374206e6f74206265207a65726f206164647265737348656c7065723a205f756e697377617032526f75746572206d757374206e6f74206265207a65726f206164647265737348656c7065723a205f737573686973776170466163746f7279206d757374206e6f74206265207a65726f2061646472657373",
  "devdoc": {
    "kind": "dev",
    "methods": {
      "swapForDeposit(bytes)": {
        "params": {
          "_swapArgs": "encoded data"
        },
        "returns": {
          "lpAddress_": "lp token address",
          "lpAmount_": "lp token amount"
        }
      }
    },
    "version": 1
  },
  "userdoc": {
    "kind": "user",
    "methods": {
      "__swapETHToToken(uint256,uint256,address,address[])": {
        "notice": "Swap ETH to ERC20 Token"
      },
      "getSushiFactory()": {
        "notice": "Gets the `SUSHI_FACTORY` variable"
      },
      "getSushiRouter()": {
        "notice": "Gets the `SUSHI_ROUTER` variable"
      },
      "getUniswapFactory()": {
        "notice": "Gets the `UNISWAP2_FACTORY` variable"
      },
      "getUniswapRouter()": {
        "notice": "Gets the `UNISWAP2_ROUTER` variable"
      },
      "swapForDeposit(bytes)": {
        "notice": "get LP token and LP amount"
      }
    },
    "version": 1
  },
  "storageLayout": {
    "storage": [],
    "types": null
  }
}